:020000040800F2
:10000000C0040020450100082F120008DB10000882
:100010002D120008CD030008A11400080000000004
:10002000000000000000000000000000E7120008CF
:10003000CF0300080000000031120008E912000898
:100040005F0100085F0100085F0100085F01000810
:100050005F0100085F0100085F0100085F01000800
:100060005F0100085F0100085F0100085F010008F0
:100070005F0100085F0100085F0100085F010008E0
:100080005F0100085F0100085F0100085F010008D0
:100090005F0100085F0100085F010008D10300084C
:1000A0005F0100085F0100085F0100085F010008B0
:1000B0005F0100085F0100085F0100085F010008A0
:1000C0005F0100085F0100085F0100085F01000890
:1000D0005F0100085F0100085F0100085F01000880
:1000E0005F0100085F0100085F0100085F01000870
:1000F0005F0100085F0100085F0100085F01000860
:100100005F0100085F0100085F0100085F0100084F
:100110005F0100085F0100085F0100085F0100083F
:100120005F0100085F0100085F0100085F0100082F
:10013000DFF80CD000F02AF8004800470915000845
:10014000C00400200648804706480047FEE7FEE757
:10015000FEE7FEE7FEE7FEE7FEE7FEE7FEE7FEE777
:100160003D13000831010008D2B201E000F8012B74
:10017000491EFBD270470022F6E710B513460A4627
:1001800004461946FFF7F0FF204610BD064C074D08
:1001900006E0E06840F0010394E807009847103457
:1001A000AC42F6D3FFF7C8FF6815000888150008B1
:1001B00070B50B4C054600221021204600F02DFAA8
:1001C000012001F098F9284600F0E0F8012001F044
:1001D00092F92046BDE870400122102100F01DBABE
:1001E0000008014010B5094C01221021204600F002
:1001F00014FA00221021064800F00FFA20460122CE
:10020000BDE81040082100F008BA000000080140D5
:100210000010014070B5364D01221021284600F033
:10022000FCF9344E01221021304600F0F6F900228C
:100230000821304600F0F1F90A2001F051F90122BD
:100240000821304600F0E9F90A2001F049F90022BE
:100250000821304600F0E1F90A2001F04CF90122B2
:100260000821304600F0D9F9642001F039F9002264
:100270001021284600F0D1F91120FFF799FF012045
:1002800005E00021202000F037F80446C82001F0E6
:1002900027F9732CF5D1E021422000F02DF80A2037
:1002A00001F01EF90021412000F026F8F021432042
:1002B00000F022F80021442000F01EF80021452023
:1002C00000F01AF83021462000F016F83F214720B0
:1002D00000F012F8DE21492000F00EF807214A2034
:1002E00000F00AF8BDE870400C214B2000F004B883
:1002F000001001400008014070B5114D0E46044643
:1003000000221021284600F088F9012001F0F3F8BE
:10031000204600F03BF8002000F038F8A00601D598
:10032000002000E0304600F031F80446012001F0E2
:10033000E2F801221021284600F06FF9204670BD36
:100340000008014038B50E4C00221021204600F074
:1003500064F9052001F0CFF80A200A4A0090092329
:1003600002F10901084800F0EDFC052001F0C3F896
:100370002046BDE838400122102100F04EB90000AF
:1003800000080140140000202800002001B582B0C0
:1003900000208DF804000A200090012301AA02A980
:1003A000024800F0CFFC9DF804000EBD280000209C
:1003B00010B51020FFF7FCFE0122BDE8104010210F
:1003C000014800F02AB9000000100140FEE7704724
:1003D000202000F015B8704710B520280AD1202140
:1003E000054800F015F9002804D1FFF7ABFF0349D9
:1003F0000120086010BD0000001001400000002036
:10040000044910B50A68024202D00860FFF7E4FF11
:1004100010BD0000140401402DE9F84FDFF8C89129
:10042000002409F1040A0AF1040B23460F270BF1FB
:10043000040ED1E00125A54006EA0502AA4276D1C4
:10044000DFF8A8C14E68A6EB0C0866452BD00DDC82
:10045000032E34D005DC36B3012E19D0022E2FD155
:100460001BE0112E16D0122E2AD119E0B8F5881FE4
:1004700019D006DCB8F5803F15D0B8F5801F1FD124
:1004800011E0B8F5001F0ED0B8F5041F18D10AE02E
:10049000CB6815E0CB681B1D12E0CB6808330FE07A
:1004A000CB680C330CE08B682BB1012B4FF00803A9
:1004B00003D0456104E0042302E0056100E000236D
:1004C000FF2A01D8064601E000F104064FEA840540
:1004D00001D9A5F12005D6F8008007FA05FC28EA25
:1004E0000C0803FA05F548EA0508C6F800804D68CF
:1004F000ED0070D53E4DAE6946F00106AE61AD69C6
:1005000024F0030605F0010500953A4D06EB050CB5
:10051000DCF80850A607360F07FA06F825EA0805A2
:10052000DFF8D480404503D14FF0000825E052E0C9
:10053000DFF8C880404502D14FF001081DE0DFF828
:10054000C080404502D14FF0020816E0DFF8B480C9
:10055000404502D14FF003080FE0DFF8AC80404582
:1005600002D14FF0040808E0DFF8A080404502D136
:100570004FF0050801E04FF0060808FA06F848EACF
:100580000508CCF808804D68D9F80060ED034D46A9
:1005900001D5164300E096432E604D68DAF80060FE
:1005A000AD03554601D5164300E096432E604D68D5
:1005B000DBF80060ED025D4601D5164300E096438E
:1005C0002E604D68DEF80060AD02754601D5164319
:1005D00000E096432E60641C0A681646E2407FF4F1
:1005E00029AFBDE8F88F00000004014000001110A1
:1005F000001002400000014000080140000C0140D2
:10060000001001400014014000180140001C01408E
:100610008068084000D0012070470AB1016170472E
:100620000904FBE7014880687047000004000020CF
:1006300002488168027811448160704704000020FC
:10064000074810B5016841F010010160032000F077
:1006500075F8002000F006F800F024F8002010BD26
:100660000020024070B50D4D04464FF47A71287891
:10067000B1FBF0F00A490968B1FBF0F000F053FC5F
:1006800048B9102C07D200222146501E00F036F83F
:1006900000206C6070BD012070BD000004000020CF
:1006A000100000200C4808B5816941F0010181610A
:1006B000816901F001010091C16941F08051C1617E
:1006C000C06900F0805000900448416821F0E0616A
:1006D00041F00071416008BD00100240000001407F
:1006E000002809DB00F01F02012191404009800031
:1006F00000F1E020C0F8001170470000F0B40E4B8C
:100700001B680C46C3F30223C3F10705042D00D96F
:100710000425191D072901D2002300E0DB1E012654
:1007200006FA05F1491E214099409E40761E16406A
:100730003143F0BC00F0B5BE0CED00E0064900F01E
:10074000070208684FF6FF03184040EA0220034AF8
:1007500010430860704700000CED00E00000FA054F
:100760002DE9F0470F46050061D0434E306800F098
:100770000700B84209D2306820F0070038433060E3
:10078000306800F00700B84251D128683B4C81071F
:1007900012D5400703D5606840F4E06060602878B7
:1007A000000703D5606840F4605060606068A96825
:1007B00020F0F000084360602878C00728D06868FF
:1007C000012810D02168022810D0890700292EDACC
:1007D000616821F0030101436160FFF723FF804658
:1007E00041F288390DE021688903EFE78901EDE7DF
:1007F000FFF718FFA0EB0801494502D90320BDE827
:10080000F0876068696800F00C00B0EB810FEFD1F1
:10081000306800F00700B8420BD9306820F00700BC
:1008200038433060306800F00700B84201D0012042
:10083000E5E72878400705D56068E96820F4E060BE
:10084000084360602878000706D56068296920F4AD
:10085000605040EAC100606000F038F86168084A02
:10086000C1F30311515CC84006490860064800689E
:10087000FFF7F8FE0020C2E700200240001002400F
:100880005015000810000020080000200448054909
:1008900000684968044AC1F30221515CC8407047AE
:1008A00010000020001002406015000804480549AF
:1008B00000684968044AC1F3C221515CC8407047CE
:1008C00010000020001002406015000812A185B041
:1008D0000FC98DE80F0014A0144A006804905168F5
:1008E000134801F00C03042B10D0082B0ED1C1F3D8
:1008F0008343C9031DF803000AD5516804AAC1F354
:100900004041515C0A4A5043B0FBF1F005B07047DA
:1009100008494843FAE700000203040506070809EE
:100920000A0B0C0D0E0F1010010200000010024007
:1009300000127A0000093D002DE9F84F040070D044
:100940002078C04DC00749D06868C0F381000128F5
:1009500007D06868C0F38100022809D16868C00325
:1009600006D52868800339D560680028E7D035E0CF
:100970006068B0F5803F0BD010B1B0F5A02F11D05A
:10098000286820F480302860286820F4802002E065
:10099000286840F480302860606890B1FFF742FE1C
:1009A00006460AE0286840F480202860F0E700BF8F
:1009B000FFF738FE801B642873D828688003F7D5BA
:1009C0000CE0FFF72FFE064605E000BFFFF72AFE0A
:1009D000801B6428F0D828688003F7D420789A4ECA
:1009E00080074FF001094FF0000839D5686810F012
:1009F0000C0F07D06868C0F38100022809D168682D
:100A0000C00306D42868800714D52069012808D1BE
:100A100010E02069B0B1C6F80090FFF703FE07466A
:100A200005E00AE1FFF7FEFDC01B0228C4D82868D4
:100A30008007F7D52868616920F0F80040EAC10016
:100A400028600DE0C6F80080FFF7ECFD074604E0E3
:100A5000FFF7E8FDC01B022823D828688007F7D4D9
:100A6000207800072CD57948A169D9B1C0F8009049
:100A7000FFF7D8FD074604E0FFF7D4FDC01B0228AE
:100A80000FD8686A8007F7D571484FF4FA510068AB
:100A9000B0FBF1F0009000BF0098411E0091FAD227
:100AA0000EE080E0C0F80080FFF7BCFD074604E0E0
:100AB000FFF7B8FDC01B022875D8686A8007F7D415
:100AC0002078400760D5E8690027C00008D4E869AD
:100AD00040F08050E861E869012700F08050009004
:100AE0005C480168C90513D40168834641F48071EC
:100AF0000160FFF797FD824606E000BFFFF792FD19
:100B0000A0EB0A0064284ED8DBF80000C005F5D53C
:100B1000E06801280AD008B1052813D0286A20F01F
:100B200001002862286A20F0040002E0286A40F0F0
:100B300001002862E06841F2883B98B1FFF772FD3E
:100B400082460BE0286A40F004002862EEE700BF0E
:100B5000FFF768FDA0EB0A0159455AD8286A8007BB
:100B6000F6D50CE0FFF75EFD824605E0FFF75AFD83
:100B7000A0EB0A0159454CD8286A8007F6D41FB16A
:100B8000E86920F08050E861E06988B36968C1F3E2
:100B90008101022944D00228C6F8608004D0FFF702
:100BA00041FD044638E034E0FFF73CFD074604E031
:100BB000FFF738FDC01B02282BD828688001F7D426
:100BC000206AB0F5803F05D16868A16820F4003044
:100BD00008436860D4E908010843696821F4741186
:100BE00008436860C6F86090FFF71CFD044606E005
:100BF00025E000BFFFF716FD001B022809D8286872
:100C00008001F7D51BE000BFFFF70CFD001B022899
:100C100002D90320BDE8F88F28688001F4D40EE0E3
:100C20000128F7D06868226A00F48031914204D12B
:100C3000616A00F47010884201D00120EAE70020C8
:100C4000E8E70000001002400000424280044242F7
:100C5000100000200070004070B5040005D0002591
:100C6000A56294F8510010B106E0012070BD84F82F
:100C70005050204600F02EF8022084F851002068E1
:100C8000016821F040010160D4E901010843D4E981
:100C900003121143084361690843218B01F4007179
:100CA0000843E1690843216A0843A16A08432168AF
:100CB0000860A069042101EA1040216848602068AA
:100CC000C16921F40061C1616565012084F85100AA
:100CD000002070BD30B585B00024009401940294CA
:100CE000039400681449884223D11448816941F46F
:100CF00080518161816901F480510491816941F0E1
:100D00000401816180690E4D00F004000490A02070
:100D10000090022001900320039069462846FFF7C7
:100D20007BFB4020CDE90004694628460294FFF78A
:100D300073FB05B030BD00000030014000100240E0
:100D4000000801402DE9F84F044690F850000027B4
:100D50000A9E1D4692468B464FF0010901280ED08F
:100D6000012084F85000FFF75DFC804694F85100A4
:100D7000616801280CD0B1F5827F07D102E0022022
:100D8000BDE8F88FA16809B9042801D00227C2E0A4
:100D9000BBF1000F27D0BAF1000F24D01DB394F897
:100DA0005100042802D0052084F85100002060651D
:100DB000C4F838A0E587A587C4F830B0E586A586D5
:100DC0002064606420680168490603D4016841F02A
:100DD00040010160E068B0F5006F606805D0E8B3DD
:100DE000012D46D07FE0012795E008B1012D39D1D2
:100DF000206B21680088C860206B801C2063E08E17
:100E0000401EE0862EE02068816889070FD5E18EBC
:100E100069B1B9F1010F0AD1216B0988C160206B5A
:100E2000801C2063E08E401EE0864FF000092068A1
:100E30008168C9070CD0E18F51B1C068A16B0880EF
:100E4000A06B801CA063E08F401EE0874FF001097B
:100E5000FFF7E8FBA0EB0800B04200E009E001D397
:100E6000701C50D1E08E0028CDD1E08F0028CAD16F
:100E70003FE0206B216800780873206B401C2063E2
:100E8000E08E401EE0862EE02068816889070FD53D
:100E9000E18E69B1B9F1010F0AD1216B09780173B3
:100EA000206B401C2063E08E401EE0864FF000095E
:100EB00020688168C9070CD0E18F51B1C068A16B6F
:100EC0000870A06B401CA063E08F401EE0874FF0CD
:100ED0000109FFF7A7FBA0EB0800B04202D3701C8A
:100EE00001D010E07EB1E08E0028CDD1E08F002847
:100EF000CAD142463146204600F09BF928B101276D
:100F00002020606507E0032705E0A06818B9206885
:100F1000C16880680090012084F85100002084F8A6
:100F2000500038462CE710B5401EB0F1807F01D349
:100F3000012010BD4FF0E02460610F21601700F028
:100F4000B0FA0020A06107202061002010BD70B51C
:100F5000040004D094F83900002510B106E0012007
:100F600070BD84F83850204600F022F8242084F820
:100F700039002068C16821F40051C160204600F0AA
:100F800001FA2068016921F49041016120684169FA
:100F900021F02A0141612068C16841F40051C1601B
:100FA000E563202084F8390084F83A00002070BD01
:100FB00030B585B000240094019402940394006835
:100FC0001449884224D11448816941F480418161E7
:100FD000816901F480410491816941F004018161DA
:100FE00080690E4D00F0040004904FF400700090F2
:100FF000022001900320039069462846FFF70CFA6F
:101000002815CDE90004694628460294FFF704FA42
:1010100005B030BD0038014000100240000801401A
:101020002DE9F843044690F839001F4616460D4650
:10103000202850D1A5B19EB194F8380001284AD09B
:10104000012084F838004FF00008C4F83C802120CB
:1010500084F83900FFF7E6FAA6848146E68426E0A4
:101060000120BDE8F883E08C401EE084A0684B4678
:10107000B0F5805F4FF000024FF0800120460097EE
:1010800003D000F0DBF9E8B90DE000F0D7F9C8B9FA
:1010900028882168C0F308004860206908B16D1CE9
:1010A00005E0AD1C03E0216815F8010B4860E08CF9
:1010B0000028D8D14B46002240212046009700F05E
:1010C000BDF908B10320CCE7202084F8390084F86A
:1010D00038800020C5E70220C3E7FEE72DE9F04392
:1010E00085B000242D4800940194029403948169F2
:1010F00041F020018161816901F020010491816941
:1011000041F004018161816901F004010491816968
:1011100041F0100181618069DFF8848000F01000E7
:101120000490002218214046FFF777FADFF8749008
:10113000002210214846FFF770FA082001250226F8
:10114000CDE90005CDE9024669464046FFF764F95E
:101150001027CDE90075CDE9025669464046FFF7F4
:101160005BF900970396CDE9015469464846FFF7BD
:1011700053F9202000900C48CDE901046946484607
:10118000FFF74AF9002201211720FFF7B7FA1720CD
:10119000FFF7A6FA05B0BDE8F0830000001002409A
:1011A000000801400010014000002110104810B557
:1011B0000E4901604FF48271416000218160C1607D
:1011C0004FF400720161C0E905120822C0E907214D
:1011D000416281620A21C162FFF73EFD002803D00F
:1011E000BDE81040FFF7F7B810BD00000030014027
:1011F000280000200C4810B50A4901604FF4E13185
:101200004160002181600C22C160C0E9041281614B
:10121000C161FFF79CFE002803D0BDE81040FFF736
:10122000DAB810BD0038014080000020FEE77047AA
:10123000704738B50B46009204460022802100F02A
:1012400008F8002804D0606D40F02000606503209D
:1012500038BD2DE9F0411D4617460E460446DDF81F
:10126000188008E0681C06D0FFF7DCF9A0EB080046
:10127000A8420BD255B12068806836EA000030D011
:101280000020B842EED10020BDE8F081206841681E
:1012900021F0E00141606068B0F5827F0BD1A06869
:1012A000B0F5004F02D0B0F5806F04D1206801681E
:1012B00021F040010160A06AB0F5005F09D120680B
:1012C000016821F4005101602068016841F4005177
:1012D0000160012084F85100002084F850000320B0
:1012E000D2E70120CDE77047FFF7A2B930B58FB044
:1012F00028216846FEF73FFF14210AA8FEF73BFFAE
:1013000001210804CDE90010002402940225049173
:10131000CDE907504FF4E01009906846FFF70CFB49
:101320000F20CDE90A056802CDE90C4002210AA888
:101330000E94FFF715FA0FB030BD00000D4801689C
:1013400041F00101016041680B4A114041600168B0
:101350000A4A11400160016821F48021016041685E
:1013600021F4FE0141604FF41F0181600449C00374
:1013700008607047001002400000FFF8FFFFF6FE13
:1013800008ED00E02DE9F041044600680169E268DB
:1013900021F44051114301612169A068084361694A
:1013A00008432168CA6841F20C639A430243CA6049
:1013B00020684169A26921F44071114341611E49CD
:1013C000206864253226884202D1FFF76FFA01E0D7
:1013D000FFF75CFA00EBC00101EB001160686FF0F1
:1013E00018078000B1FBF0F2B2FBF5F2B1FBF0F3AD
:1013F0007A4303EB8202B1FBF0F306EB0212B2FB7D
:10140000F5F2B3FBF5F302F0F00202EB0312B1FBCD
:10141000F0F3B1FBF0F0B0FBF5F0784303EB8000A4
:1014200006EB0010B0FBF5F0216800F00F0010444F
:101430008860BDE8F0810000003801402DE9F041EE
:10144000984617460E460446069D1DE0681C1BD0B4
:101450002DB1FFF7E7F8A0EB0800A84214D92068E7
:10146000C16821F4D071C1602068416921F0010197
:101470004161202084F8390084F83A00002084F883
:1014800038000320BDE8F0812068006836EA0000DB
:1014900004D00020B842D9D00020F3E70120F9E7BA
:1014A000FEE70907090E002804DB00F1E02080F8C0
:1014B0000014704700F00F0000F1E02080F8141DC8
:1014C000704702E008C8121F08C1002AFAD170470D
:1014D0007047002001E001C1121F002AFBD17047B4
:1014E00042F6DF6303E01946491E89B2FCD2401E72
:1014F00080B2F8D2704703E00B21491E89B2FCD2BA
:10150000401E80B2F8D27047FFF79AF8FFF7EEFE60
:10151000FFF7E4FDFFF74AFEFFF76CFEFEF762FE01
:10152000FEF778FEFEF744FF064C002520680128F0
:10153000FCD10A23092204490448FFF771FD256004
:10154000F4E70000000000201400002080000020CC
:101550000000000000000000010203040607080963
:1015600000000000010203048815000800000020AC
:1015700014000000C21400089C150008140000208C
:10158000AC040000D21400080000000001000000BC
:0C15900010000000000000000024F40027
:0400000508000131BD
:00000001FF
