:020000040800F2
:10000000100500209D010008F71300088F1200085A
:10001000F5130008F1020008E517000800000000D1
:10002000000000000000000000000000E9140008CB
:10003000F302000800000000F9130008EB140008A8
:10004000B7010008B7010008B7010008B7010008B0
:10005000B7010008B7010008B7010008B7010008A0
:10006000F5020008B7010008B7010008B701000851
:10007000B7010008B7010008B7010008B701000880
:10008000B7010008B7010008B7010008B701000870
:10009000B7010008B7010008B7010008B701000860
:1000A000B7010008B7010008B7010008B701000850
:1000B000B7010008B7010008B7010008B701000840
:1000C000B7010008B7010008B7010008B701000830
:1000D000B7010008B7010008B7010008B701000820
:1000E000B7010008B7010008B7010008B701000810
:1000F000B7010008B7010008B7010008B701000800
:10010000B7010008B7010008B7010008B7010008EF
:10011000B7010008B7010008B7010008B7010008DF
:10012000B7010008B7010008B7010008B7010008CF
:10013000B7010008B7010008B7010008B7010008BF
:10014000B7010008B7010008B7010008B7010008AF
:10015000B7010008B7010008B7010008B70100089F
:10016000B7010008B7010008B7010008B70100088F
:10017000B7010008B7010008B7010008000000003F
:10018000B7010008B7010008DFF80CD000F07AF8DA
:10019000004800473D180008100500200648804729
:1001A00006480047FEE7FEE7FEE7FEE7FEE7FEE75C
:1001B000FEE7FEE7FEE7FEE7751500088901000887
:1001C0002DE9F05F0546002092469B46884606468C
:1001D000814640241BE0284641464746224600F01F
:1001E00041F853465A46C01A914110D31146184659
:1001F000224600F028F82D1A67EB01084F462246E8
:100200000120002100F01FF817EB00094E41201ECD
:10021000A4F10104DFDC484631462A464346BDE8E6
:10022000F09FD2B201E000F8012B491EFBD27047CB
:100230000022F6E710B513460A4604461946FFF7B2
:10024000F0FF204610BD202A04DB203A00FA02F11C
:10025000002070479140C2F1200320FA03F31943B4
:1002600090407047202A04DB203A21FA02F0002156
:10027000704721FA02F3D040C2F1200291400843B6
:1002800019467047064C074D06E0E06840F0010350
:1002900094E8070098471034AC42F6D3FFF778FF94
:1002A000AC180008CC18000838B50E4C00221021FC
:1002B000204600F036F9012001F0B4FA0A200A4A7B
:1002C0000090092302F10901084800F09DFD01207A
:1002D00001F0A8FA2046BDE838400122102100F0C4
:1002E00020B900000000024020000020340000205F
:1002F000FEE77047042000F027B8704770B5044649
:1003000000F014F90546601C02D00448007804444B
:1003100000F00CF9401BA042FAD370BD1000002081
:1003200010B504280AD10421054800F0F5F800288A
:1003300004D1FFF7B9FF03490120086010BD000098
:100340000000024000000020044910B50A68024283
:1003500002D00860FFF7E4FF10BD0000143C01402C
:100360002DE9F84F00224FF0010803254FF00F0E42
:100370000B6808FA02F42340A3426ED14E68012EA6
:1003800005D0022E03D0112E01D0122E12D1866874
:100390004FEA420C05FA0CF7BE43CF6807FA0CF798
:1003A000374387604668A6430C79C4F30014944031
:1003B00034434460C668570005FA07FC8C6826EA97
:1003C0000C06BC403443C4604C68022C01D0122C93
:1003D00013D1D40800EB8404A346D4F8209054072A
:1003E0004FEAD46A0EFA0AF629EA06090E6906FAF5
:1003F0000AF646EA0906CBF8206006680C7926EA78
:100400000C0604F00304BC40344304604C68E40070
:1004100065D5364C266846F480462660246822F06E
:10042000030604F480440094314C3444A446D4F8C8
:1004300008489607370F0EFA07F6B4432D4EB04220
:1004400001D1002624E02C4EB04201D101261FE04C
:100450002A4EB04202D102261AE040E0284EB042B5
:1004600001D1032614E0274EB04201D104260FE04B
:10047000254EB04201D105260AE0244EB04201D1FA
:10048000062605E0224EB04201D1072600E00826EC
:10049000BE402643CCF808681E4E34684F689C4323
:1004A000FF0300D51C4334601A4C241D26684F6896
:1004B0009E43BF0300D51E432660164E083634689F
:1004C0004F689C43FF0200D51C433460114E0C362C
:1004D00034684F689C43BF0200D51C433460521CF3
:1004E000102AFFF445AFBDE8F88F00004438024001
:1004F00000300140000002400004024000080240B9
:10050000000C02400010024000140240001802409B
:10051000001C0240003C01400069084000D001205E
:1005200070470AB1816170470904FBE701488068A0
:1005300070470000100000200248816802781144D2
:1005400081607047100000200B4810B5016841F42D
:1005500000710160016841F480610160016841F44B
:1005600080710160032000F06FF8002000F006F8B1
:1005700000F024F8002010BD003C024070B50D4D85
:1005800004464FF47A712878B1FBF0F00A49096803
:10059000B1FBF0F000F029FD48B9102C07D2002281
:1005A0002146501E00F030F800206C6070BD012024
:1005B00070BD0000100000201C0000200A4808B593
:1005C000016841F480410160006800F480400090BF
:1005D0000548001F016841F080510160006800F08B
:1005E0008050009008BD000044380240002809DB1C
:1005F00000F01F02012191404009800000F1E0203D
:10060000C0F8001170470000F0B40E4B1B680C4698
:10061000C3F30223C3F10705042D00D90425191DD6
:10062000072901D2002300E0DB1E012606FA05F1AE
:10063000491E214099409E40761E16403143F0BC31
:1006400001F0D1B80CED00E0064900F0070208689F
:100650004FF6FF03184040EA0220034A10430860A7
:10066000704700000CED00E00000FA052DE9F047AE
:100670000E46050065D0DFF81481D8F80000F7B207
:1006800000F00F00B04207D288F80070D8F80000E0
:1006900000F00F00B04254D128683D4C810712D5BC
:1006A000400703D5206840F4E05020602878000718
:1006B00003D5206840F4604020602068A96820F0DD
:1006C000F000084320602878C0072DD030496868C2
:1006D0000839012812D0022813D0032811D0096844
:1006E000890700292DDA216821F0030101432160E7
:1006F000FFF71CFF814641F2883A0EE00968890342
:10070000EFE709688901ECE7FFF710FFA0EB0901AB
:10071000514502D90320BDE8F0872068696800F0E0
:100720000C00B0EB810FEFD1D8F80010404601F07B
:100730000F01B14207D90770006800F00F00B04206
:1007400001D00120E7E72878400705D52068E9684F
:1007500020F4E050084320602878000706D5206880
:10076000296920F4604040EAC100206000F038F8B8
:100770002168084AC1F30311515CC840064908606A
:1007800006480068FFF7FAFE0020C4E7003C02407C
:1007900008380240941800081C00002014000020B3
:1007A0000448054900680968044AC1F38221515C84
:1007B000C84070471C00002008380240A4180008F8
:1007C0000448054900680968044AC1F34231515C94
:1007D000C84070471C00002008380240A4180008D8
:1007E000154810B5006810F00C02144813D04110E1
:1007F000042A0FD0082A0ED10F4C241F2268236828
:1008000002F03F025B0207D52068C0F38810A0FB0E
:10081000010106E0084610BD2168C1F38811A1FB63
:1008200000010023FFF7CCFC2168C1F30141491C02
:100830004900B0FBF1F010BD083802400024F4007C
:100840002DE9F84F04006ED02078DFF83C93C00704
:10085000A9F104054AD009F104000168C1F381013E
:10086000012908D00068C0F3810002280AD1D9F814
:100870000000400206D52868800337D5606800284C
:10088000E1D033E06068B0F5803F10D0B0F5A02F24
:10089000286810D020F480302860286820F4802058
:1008A00028606068A8B1FFF741FE06460DE02868A1
:1008B00040F48030F4E740F480202860F7E700BF80
:1008C000FFF734FE801B642873D828688003F7D5AF
:1008D0000CE0FFF72BFE064605E000BFFFF726FE03
:1008E000801B6428F0D828688003F7D42078DFF8CC
:1008F0009C8280074FF0000A3ED5A348001D016886
:1009000011F00C0F08D00068C0F3810002280BD151
:10091000D9F80000400207D42868800716D5E0689F
:10092000012800D112E02BE1E068B8B10120C8F83D
:100930000000FFF7FBFD064605E000BFFFF7F6FDF0
:10094000801B0228C0D828688007F7D5286821694D
:1009500020F0F80040EAC10028600DE0C8F800A0CF
:10096000FFF7E4FD064604E0FFF7E0FD801B0228E8
:100970001FD828688007F7D42078000722D5824E38
:1009800083486169703671B101210160FFF7CEFDC6
:10099000074604E0FFF7CAFDC01B022809D83068EB
:1009A0008007F7D50EE0C0F800A0FFF7BFFD0746AF
:1009B00005E082E0FFF7BAFDC01B02287DD8306851
:1009C0008007F7D42078400768D5DFF8BCB100274E
:1009D0000BF13C0BDBF80000C0000BD4DBF800107F
:1009E00041F08051CBF80010DBF80000012700F047
:1009F00080500090674E3068C00510D4306840F4D5
:100A000080703060FFF792FD009005E0FFF78EFDEB
:100A10000099401A022850D83068C005F6D55A4EC1
:100A2000A0686C3601280FD00528306810D020F05F
:100A300001003060306820F004003060A068B8B178
:100A4000FFF774FD00900FE0306840F00100F4E71C
:100A500040F004003060F7E7FFF768FD0099411AA5
:100A600041F28830814266D830688007F4D50EE0C4
:100A7000FFF75CFD009007E0FFF758FD0099411A71
:100A800041F28830814256D830688007F4D42FB1C3
:100A9000DBF8001021F08051CBF80010A069C8B33A
:100AA0003949091D0968C1F3810102294AD0022888
:100AB000504607D0C8F8600000E03CE0FFF736FD84
:100AC00004463BE04746C8F86000FFF72FFD0646A6
:100AD00005E000BFFFF72AFD801B02282BD82868FD
:100AE0008001F7D4D4E907010843A16A2A4A4908DA
:100AF00002EB0141626A41EA8211084394F82C102A
:100B000040EA0161C9F8001001203866FFF70EFDC8
:100B1000044606E036E000BFFFF708FD001B022890
:100B200009D828688001F7D52CE000BFFFF7FEFC4C
:100B3000001B022802D90320BDE8F88F2868800135
:100B4000F4D41FE00128F7D0D9F80000E26900F4DE
:100B50008001914214D1226A00F03F0191420FD1ED
:100B600047F6C071626A0140914209D1A26A00F45D
:100B70004031914204D1E16A00F07060884201D0B6
:100B80000120D9E70020D7E704380240000047429F
:100B9000800E4742007000400000FFFF70B5040067
:100BA00005D00025A56294F8510010B106E001209F
:100BB00070BD84F85050204600F030F8022084F8D0
:100BC00051002068016821F040010160D4E9010171
:100BD0000843D4E903121143084361690843218B98
:100BE00001F400710843E1690843216A0843A16ADE
:100BF000084321680860A069042101EA1040616A85
:100C00000843216848602068C16921F40061C1611E
:100C10006565012084F85100002070BDF0B587B0F3
:100C2000044614216846FFF703FB1C4920688842EC
:100C300032D11B480024016841F480410160006802
:100C400000F48040059016481038016841F0040116
:100C50000160016801F004010591016841F00201A1
:100C600001600068022500F0020005900C20CDE92B
:100C7000000502AA0326052782E8D0006946094834
:100C8000FFF76EFB6802CDE9000502AA694682E81B
:100C9000D0000548FFF764FB07B0F0BD0038004006
:100CA0004038024000080240000402402DE9F84F9D
:100CB000044690F8500000271D4616468946012834
:100CC0000DD04FF0010B84F850B0FFF72FFC804699
:100CD00094F85100BA46012804D002278EE0022081
:100CE000BDE8F88FB9F1000F7DD0002E7BD0032036
:100CF00084F85100C4F854A0C4F83090A686E68663
:100D0000C4F838A0A4F83CA0A4F83EA0C4F844A0BD
:100D1000C4F840A0A068B0F5004F04D12068016875
:100D200041F48041016020680168490603D40168EC
:100D300041F040010160E068B0F5006F606803D0E9
:100D400030B3012E24D040E008B1012E1CD1206B1D
:100D500021680088C86006E020688168890709D595
:100D6000216B0988C160206B801C2063E08E401ECF
:100D7000E08609E0FFF7DAFBA0EB0800A84202D307
:100D8000681C01D031E07DB3E08E0028E4D11FE083
:100D9000206B21680078087306E020688168890765
:100DA00009D5216B09780173206B401C2063E08E0C
:100DB000401EE08609E0FFF7B9FBA0EB0800A8425F
:100DC00002D3681C01D010E075B1E08E0028E4D198
:100DD00042462946204600F011FB08B120206065FC
:100DE000A06820B107E008E0FFE7032706E02068DD
:100DF000C16880680090606D00B1012784F851B02F
:100E000084F850A038466BE72DE9F84F044690F877
:100E1000500000270A9E1D4692468B464FF001095E
:100E200001280ED0012084F85000FFF77FFB804698
:100E300094F85100616801280CD0B1F5827F07D188
:100E400002E00220BDE8F88FA16809B9042801D0AA
:100E50000227C2E0BBF1000F27D0BAF1000F24D067
:100E60001DB394F85100042802D0052084F85100E5
:100E700000206065C4F838A0E587A587C4F830B0C5
:100E8000E586A5862064606420680168490603D46D
:100E9000016841F040010160E068B0F5006F6068F2
:100EA00005D0E8B3012D46D07FE0012795E008B1D9
:100EB000012D39D1206B21680088C860206B801C0F
:100EC0002063E08E401EE0862EE02068816889075E
:100ED0000FD5E18E69B1B9F1010F0AD1216B0988F3
:100EE000C160206B801C2063E08E401EE0864FF0C6
:100EF000000920688168C9070CD0E18F51B1C06832
:100F0000A16B0880A06B801CA063E08F401EE0876F
:100F10004FF00109FFF70AFBA0EB0800B04200E028
:100F200009E001D3701C50D1E08E0028CDD1E08FB4
:100F30000028CAD13FE0206B216800780873206B3D
:100F4000401C2063E08E401EE0862EE02068816811
:100F500089070FD5E18E69B1B9F1010F0AD1216B73
:100F600009780173206B401C2063E08E401EE086F0
:100F70004FF0000920688168C9070CD0E18F51B19A
:100F8000C068A16B0870A06B401CA063E08F401E7E
:100F9000E0874FF00109FFF7C9FAA0EB0800B04263
:100FA00002D3701C01D010E07EB1E08E0028CDD1BC
:100FB000E08F0028CAD142463146204600F01EFA92
:100FC00028B101272020606507E0032705E0A0681D
:100FD00018B92068C16880680090012084F8510029
:100FE000002084F8500038462CE710B5401EB0F1C0
:100FF000807F01D3012010BD4FF0E02460610F21FC
:10100000601700F0F0FB0020A061072020610020A5
:1010100010BD000070B590F83C20012A32D00124A8
:1010200080F83C40022280F83D2003685A689D68A1
:1010300022F070060A6832435A60134B02689A42E3
:1010400014D0B2F1804F11D0104B9A420ED0104BF9
:101050009A420BD00F4B9A4208D00F4B9A4205D0C0
:101060000E4B9A4202D00E4B9A4204D1496825F0A9
:1010700080031943916080F83D40002180F83C10C6
:10108000084670BD022070BD000001400004004011
:1010900000080040000C00400004014000400140F6
:1010A0000018004010B5040003D094F83D0010B1C2
:1010B00007E0012010BD002084F83C00204600F02D
:1010C0000DF8022084F83D00211D206800F060FA30
:1010D000012084F83D00002010BD000008B5006824
:1010E0000649884208D10648016841F020010160A4
:1010F000006800F02000009008BD000000140040CF
:101100004038024070B5040004D094F8390000253E
:1011100010B106E0012070BD84F83850204600F080
:1011200023F8242084F839002068C16821F4005194
:10113000C160204600F090FA2068016921F49041D6
:1011400001612068416921F02A0141612068C1687C
:1011500041F40051C160E563202084F8390084F82F
:101160003A00002070BD000010B586B0044614217E
:101170006846FFF75DF814492068884221D113487A
:101180000021026842F010020260006800F01000C6
:1011900005900E481438026842F0010202600068AF
:1011A00000F0010005904FF4C06000900220CDE9EE
:1011B0000101032003900720049069460448FFF7CB
:1011C000CFF806B010BD00000010014044380240C6
:1011D000000002402DE9F843044690F839001F460C
:1011E00016460D46202850D1B5B1AEB194F838005E
:1011F00001284AD0012084F838004FF00008C4F8D4
:101200003C80212084F83900FFF790F9A6848146BC
:10121000E68484F8388026E00120BDE8F883E08C7D
:10122000401EE084A0684B46B0F5805F4FF000029E
:101230004FF080012046009703D000F0A1FAE8B9F2
:101240000DE000F09DFAC8B928882168C0F30800B5
:101250004860206908B16D1C05E0AD1C03E0216801
:1012600015F8010B4860E08C0028D8D14B460022CD
:1012700040212046009700F083FA08B10320CCE714
:10128000202084F839000020C7E70220C5E7FEE7E8
:1012900030B587B014216846FEF7CAFF2248002403
:1012A000016841F080010160016801F08001059151
:1012B000016841F004010160016801F00401059139
:1012C000016841F001010160016801F0010105912F
:1012D000016841F0020101600068144D00F0020055
:1012E0000590002213212846FFF71BF913200090D8
:1012F0000120CDE90104694628460394FFF730F840
:10130000042000900A48CDE9010469462846FFF709
:1013100027F8002201210820FFF776F90820FFF7BF
:1013200065F907B030BD00003038024000000240CF
:1013300000002110104810B50E4901604FF4827171
:101340004160002181600122C160C0E904125202A3
:1013500082611022C0E90721416281620A21C162D3
:10136000FFF71CFC002803D0BDE81040FEF7C5BF06
:1013700010BD000000380040340000201CB50024DF
:101380000D4800940B49019401605321C0E90114F8
:10139000C4608461FFF786FE08B1FEF7AEFF0094DB
:1013A000694605480194FFF735FE002801D0FEF795
:1013B000A4FF1CBD001400408C0000200C4810B598
:1013C0000A4901604FF4E1314160002181600C2243
:1013D000C160C0E904128161C161FFF793FE00287A
:1013E00003D0BDE81040FEF788BF10BD00100140DB
:1013F000CC000020FEE770477047000038B5044677
:101400001248134B0068B0FBF3F04FF47A73584363
:1014100000906068B0F5827F0DD10B4600920022EB
:101420008021204600F016F870B1606D40F0200079
:101430006065032038BD009830B1401E00902068E0
:101440008068C0430006F6D5002038BD1C0000208F
:1014500000366E012DE9F0411D4617460E46044642
:10146000DDF8188008E0681C06D0FFF75FF8A0EBF5
:101470000800A8420BD255B12068806836EA000007
:1014800030D00020B842EED10020BDE8F0812068C5
:10149000416821F0E00141606068B0F5827F0BD1C6
:1014A000A068B0F5004F02D0B0F5806F04D120687D
:1014B000016821F040010160A06AB0F5005F09D128
:1014C0002068016821F4005101602068016841F43E
:1014D00000510160012084F85100002084F8500080
:1014E0000320D2E70120CDE77047FFF725B80000C1
:1014F00030B593B030216846FEF79AFE14210CA84F
:10150000FEF796FE19480025016841F08051016000
:10151000006800F0805011901548016841F4804146
:1015200001600068022400F48040119001200390C3
:1015300010200490009406940820CDE90750A820BC
:10154000CDE9090404200B906846FFF779F90CA94E
:101550000F2081E831004FF4A0500F90E00210906E
:1015600005210CA8FFF782F813B030BD40380240C7
:10157000007000400548016841F4700101600349B2
:101580004FF00060803908607047000088ED00E08F
:10159000F0B50268254C264D264E274F274B4FF0BD
:1015A000804CA04209D0604507D0A84205D0B04287
:1015B00003D0B84201D0984204D122F0700E4A689C
:1015C00042EA0E02A0421BD0604519D0A84217D0B3
:1015D000B04215D0B84213D0984211D0184DA8424D
:1015E0000ED0184DA8420BD0174DA84208D0174D69
:1015F000A84205D0164DA84202D0164DA84203D1EC
:1016000022F44075CA682A434D6922F080022A43B9
:1016100002608A68C2620A688262A04201D098426F
:1016200001D10969016301214161F0BD0000014060
:101630000004004000080040000C0040000401408D
:1016400000400140004401400048014000180040B3
:10165000001C0040002000402DE9F04104460068D5
:101660000169E26821F44051114301612169A068D8
:10167000E26908436169114308432168CA6849F275
:101680000C639A430243CA6020684169A26921F44D
:10169000407111434161E069192764253226B0F594
:1016A000004F354A354920684FF0000806D088427F
:1016B00001D0904236D1FFF783F835E0884201D05F
:1016C000904202D1FFF77CF801E0FFF769F861680A
:1016D0004A18A0FB070148EB0803FEF771FD01461D
:1016E000B0FBF5F00201B1FBF5F06FF018035843C1
:1016F00001EB800006EBC000B0FBF5F000F0F80055
:1017000002EB4002B1FBF5F0584301EB800006EB21
:10171000C000B0FBF5F000F00700216810448860BD
:10172000BDE8F081FFF73CF861688B0F8A00A0FBF1
:101730000701FEF745FD0146B0FBF5F06FF018021A
:10174000504301EB800006EB0010B0FBF5F000F019
:10175000F002B1FBF5F002EB0012B1FBF5F06FF017
:101760001803584301EB800006EB0010B0FBF5F0C6
:1017700000F00F00D1E7000000140140001001400C
:101780002DE9F041984617460E460446069D1DE099
:10179000681C1BD02DB1FEF7C9FEA0EB0800A842C3
:1017A00014D92068C16821F4D071C16020684169F2
:1017B00021F001014161202084F8390084F83A00C9
:1017C000002084F838000320BDE8F081206800681C
:1017D00036EA000004D00020B842D9D00020F3E758
:1017E0000120F9E7FEE70907090E002804DB00F1F4
:1017F000E02080F80014704700F00F0000F1E020B6
:1018000080F8141D704702E008C8121F08C1002AA2
:10181000FAD170477047002001E001C1121F002A71
:10182000FBD17047002205E01421491E11F0FF0191
:10183000FBD1521C8242F7DB70470000FEF784FEAA
:10184000FFF756FEFFF724FDFFF7B8FDFFF772FD27
:10185000FFF794FD0B4C00250A4914230922091DAA
:101860000948FFF723FA2068012806D10A23092234
:1018700006490748FFF7AEFC25603220FEF73EFD23
:10188000EAE70000000000203400002020000020D3
:10189000CC00002000000000000000000102030452
:1018A000060708090000000001020304CC18000824
:1018B000000000202000000006180008EC180008B6
:1018C00020000020F00400001618000800000000AE
:1018D00000010203040506070800000001000000E3
:0C18E00010000000000000000024F400D4
:040000050800018965
:00000001FF
